:020000040800F2
:10000000B8490220C1010008DB030008B103000861
:10001000D9030008490300080D150008000000007E
:10002000000000000000000000000000F5120008C1
:100030004B03000800000000F3120008F71200084C
:10004000DB010008DB010008DB010008DB01000820
:10005000DB010008DB0100084D030008DB0100089C
:100060006D030008DB0100088D030008DB010008B8
:10007000DB010008DB010008DB010008DB010008F0
:10008000DB010008DB010008DB010008DB010008E0
:10009000DB010008DB010008DB010008DB010008D0
:1000A000DB010008DB010008DB010008DB010008C0
:1000B00021140008DB010008DB010008DB01000857
:1000C000DB010008DB010008DB010008DB010008A0
:1000D000DB010008D5140008DB010008DB01000883
:1000E000DB010008DB010008DB010008DB01000880
:1000F000DB010008DB010008DB010008DB01000870
:10010000DB010008DB010008DB010008DB0100085F
:10011000DB010008DB010008DB010008DB0100084F
:10012000DB010008DB010008DB010008DB0100083F
:10013000DB010008DB010008DB010008DB0100082F
:10014000DB010008DB010008DB010008DB0100081F
:10015000DB010008DB010008DB010008DB0100080F
:10016000DB010008DB010008DB010008DB010008FF
:10017000DB010008DB010008DB01000800000000D3
:10018000DB010008DB010008DB010008DB010008DF
:10019000DB010008DB010008DB01000800000000B3
:1001A00091140008DB010008B5030008DFF80CD04B
:1001B00000F0B8F8004800477DFB0108B84902206C
:1001C0000648804706480047FEE7FEE7FEE7FEE7F1
:1001D000FEE7FEE7FEE7FEE7FEE7FEE7091300089D
:1001E000AD0100082DE9F05F0546002092469B46D0
:1001F00088460646814640241BE02846414647463D
:10020000224600F07FF853465A46C01A914110D357
:1002100011461846224600F066F82D1A67EB0108D1
:100220004F4622460120002100F05DF817EB00093F
:100230004E41201EA4F10104DFDC484631462A4627
:100240004346BDE8F09F10B5431A934209D2831884
:10025000881803E010F8011D03F8011D521EF9D2A1
:1002600010BD40EA01039B0703D009E008C9121F33
:1002700008C0042AFAD203E011F8013B00F8013B60
:10028000521EF9D210BDD2B201E000F8012B491E76
:10029000FBD270470022F6E710B513460A46044623
:1002A0001946FFF7F0FF204610BD421C10F8011B55
:1002B0000029FBD1801A704710B5002200E0521CC3
:1002C000835C8C5CA34201D1002BF8D1D8B2E1B29F
:1002D000401A10BD034611F8012B00F8012B002A2B
:1002E000F9D118467047202A04DB203A00FA02F1BF
:1002F000002070479140C2F1200320FA03F3194314
:1003000090407047202A04DB203A21FA02F00021B5
:10031000704721FA02F3D040C2F120029140084315
:1003200019467047064C074D06E0E06840F00103AF
:1003300094E8070098471034AC42F6D3FFF73AFF31
:1003400098830208B8830208FEE7704780B5012051
:1003500006F004FB40B11548802107F0B6FB0120F0
:10036000BDE8804006F0F6BA80BD00BF80B504202D
:1003700006F0F4FA40B10D48802107F0A6FB0420F6
:10038000BDE8804006F0E6BA80BD00BF80B5102011
:1003900006F0E4FA40B10548802107F096FB1020F2
:1003A000BDE8804006F0D6BA80BD00BF001C024008
:1003B000FEE7000080B5022008F062FD40B1022097
:1003C00008F058FD03481C30BDE880400DF078B9B6
:1003D00080BD00BF00010020FEE770470A600A6888
:1003E0001043086070470A681043086070471C6833
:1003F00004F4E064704700F01F010122800902FA52
:1004000001F170472046202106F094B80E214FF4E8
:10041000006248474FF0804001217047CAB28176A0
:10042000C068520052FA81F1890016F0DFBCE06822
:1004300000681AF065B94DF808ED08F041FA002897
:100440005DF808EB7047081A01B200EBE13282EA6E
:10045000E1310FFA89F209EBE23389B283EAE23241
:1004600092B29142704720464FF480317047304637
:10047000294619F0ADBABBF81600BBF81A10728BFA
:10048000009CB146081A0221013000B290FBF1F045
:10049000F18A511A6FF00102013109B291FBF2F1B8
:1004A0000844704700EB8000502101EB4000A02180
:1004B00090FBF1F070472A461CF0C0BF096801EBC1
:1004C0008002526841F820200130704730460321F5
:1004D000002270470144ADF85010BDF85410084494
:1004E000BDF85210ADF85400B9F802000144ADF85F
:1004F0005210BDF856100844704721EA00001999BF
:100500006FF30F0308447047011BADF8E010291981
:1005100008445318ADF8E400101BADF8E630ADF810
:10052000E200704709B21BB2019030460EF0D0BA1B
:100530004618BDF86C00ADF87400BDF87000ADF859
:10054000780002208DF860007047A4EB0B0110FBCF
:1005500005F001EBD030A8F8020006F15A0000B215
:100560003847BBF80010BBF80420511A013109B21A
:10057000081A022190FBF1F0BDF8A810084470475A
:10058000009040460EF0A8B8B8F81500C0F38A00F5
:100590000130400800FB05F170478DF8440020460B
:1005A000CDE9009A06F0F6BA36F8140F7188F28891
:1005B000511A7047204617F099BE606A202289B20E
:1005C0000AF082BC284612F053BE2846FFF774BEDC
:1005D00002463046002148470021022202231BF038
:1005E0008BB842F2640142F264021BF0E1B952F8A6
:1005F0000C1C022332F8042C009070470446D0E90A
:100600000A204FF4806500210023009516F012BBEC
:1006100004460068083016F01FBB59463A46534658
:100620003047B2FA82F4C4F11A03DA4082F02003B0
:10063000C4F119027047B4F93010B4F932203DB258
:10064000009516F0F7BA204608F00ABA20464FF493
:10065000003119F0A2BA20461AF052B80398049D4E
:10066000069AA9EB0A01009020462B461FF0D7B846
:1006700028464FF4802119F098BC296820460022B2
:1006800001F04DB80190012009900020CDE907004C
:10069000704703FA01F2072303FA01F1036823EA22
:1006A000010111430160704701EB410100EBC10002
:1006B00001697047104308607047C0F884107047A4
:1006C00030460021022270470E21402248470F2168
:1006D00012F0D4BDD8E90020042112F0CFBD0222CF
:1006E0000023091A013109B291FBF2F141F6FF72C0
:1006F0000D18681C01B230467047ADF88C10618B44
:100700000144ADF89210E18A081A70470D4606467A
:1007100019F043BBBBF81400BBF81810328B009CD7
:10072000B146081A0221013000B290FBF1F0B18A03
:10073000511A6FF00102013109B291FBF2F1084444
:10074000704700EB80004000F02870472846514673
:10075000BBF8082019F021BB0168C9688A6922F03A
:1007600002028A61704706985A3000B21EF0D0BF6C
:10077000BDF86E00BDF87210081ABDF87010013097
:1007800000B27047BDF8E2000BF1010B0130ADF88B
:10079000E200BDF8E6000130ADF8E6007047BBF1BD
:1007A000000FADF87A50ADF8765070470BEB0901A9
:1007B00010FB05F001EBD030A8F8040030B2384748
:1007C000BBF800100844BBF80410081ABDF8A810C4
:1007D000084401307047B6F80100C0F38A0010FBEE
:1007E000054038447047B8F81500C0F38A00073058
:1007F000C00800FB05F17047002119F0CEBA0022B5
:10080000E86800F1180120463047204619F08EBCF8
:10081000022117F011BEE169626A521A504301EBDE
:10082000A020BCBD29463A46434630470446D01A6C
:1008300005B2002D7047284612F01ABD20464FF42D
:10084000003119F07FBAADF8460028440138ADF800
:100850004A007047BDF85600BDF85A10081A01301A
:1008600001B2BDF952008842704750464FF4403102
:1008700070471C21002212F001BD30464FF48071F8
:1008800019F08FBCCDF808805846009C18F0CBBA00
:10089000006850F82470384619F087BCDDE9041070
:1008A00088427047BDF972002CB284427047706D67
:1008B000F568504730464FF4C0212A4619F03CBD38
:1008C000511A0222013109B291FBF2F17047204620
:1008D0001DF0B8BFC6F164014843642190FBF1F0FC
:1008E00070474FF4002119F05CBC284618F00EBC8C
:1008F00000210DF0F5BC2146ADF84660ADF8426030
:1009000016F097BBE8684FF4803200F108012046EA
:100910003047284612F0B2BCBDF83E00BDF8421088
:10092000081A0130704720464FF4E0217047521AF0
:10093000013212B292FBF3F211447047204618F0D4
:10094000B2BFCDE90700204612F098BC0138ADF8DF
:100950005E000E9800B20D1A7047BDF95C1022B20D
:10096000504633460DF04CBEF0684FF4A02200F123
:10097000200120463847284618F055BABDF85400E3
:10098000081A013007B2BE42704784F85C00606A02
:100990001BF09CB9284619F0B3BE05EBD030ADF87A
:1009A0005E00119805887047ADF87A100C9ABDF872
:1009B000A610414409B28A427047706DF4685047EE
:1009C000ADF8A410ADF8EC1095F888100907704741
:1009D0000899DDE9060212F071BD42F2D1740646B3
:1009E000001BB0FA80F070471FFA80FBB9F8004096
:1009F000BBF1590F7047324600F043BE706DF4688A
:100A0000032150474FF6FD7192B288424FF000002B
:100A10007047204608F040BC04FB03F2642392FBBD
:100A2000F3F212B27047324600F0C7BD204618F00C
:100A300077BAD8F80800C8F80850704794F848000A
:100A400000F0F70084F848007047013001FA80F1A7
:100A5000914270478DF89000504631460FF043B9EF
:100A600000F1600120463847002200F0A6BD8DF855
:100A70009000504629460FF036B9014605F1200096
:100A800010479DF8AD2042F010028DF8AD20704760
:100A9000284619F0ADB8ADF84650ADF8425016F002
:100AA000C8BA706DF4680A215047284619F014B985
:100AB00004995046324616F067BA706DF468022108
:100AC0005047284618F092BB02FA01F405FA01F1EA
:100AD00070478B6B4FF6FF7400F11005A3438B63D7
:100AE00038CD7047835823EA010181507047304662
:100AF000022101227047204606F009BDD8E90020F6
:100B0000072112F0BBBBB8683146006850F82B8053
:100B1000404619F04ABBA068006850F8260019F05A
:100B200056BE618B0144ADF80610218B0144ADF82F
:100B30000410E18A091AADF80210A18A081A704758
:100B400000200CF0C7BDC0F3C5016FF0070000EB3B
:100B5000C1000139704700B21EF0DABD06443846C4
:100B600031460CF049B8ADF834009AF808008DF819
:100B7000440084F00100284301287047139F504629
:100B800031463A4616F05EB901EBD030A8F80000C5
:100B90000FFA8AF03847707FB6F91430494622467A
:100BA000009038461EF03BBE4DF808ED81EA522118
:100BB000C9B21FF086F80AF808005DF808EB704724
:100BC000B8F81500C0F38A000330800800FB05F177
:100BD0007047384619F094BDF068042200F1A00176
:100BE000204638470093002316F024B820461C21E5
:100BF000002212F043BB42F2640142F2D1721AF0B9
:100C0000D7BEB7F92030F88BD7E90512C518E068D0
:100C1000009516F00FB80446D0E90A204FF4806121
:100C200000230091002116F005B8304659463A4697
:100C3000534602F0CABC204619F062BDA1868BB2B1
:100C400010F8133013F0280F704794F83C0000F0B0
:100C5000EF0084F83C0070476FF00200BDF85810B8
:100C6000BDF9506004940230ADF84C007047304636
:100C70001A212A4612F002BB4FF4A02119F005B840
:100C8000606A15F05FBA284618F0CEBEDDF84090D5
:100C9000DDF84880704700F150012046384728466B
:100CA00018F011BE284618F042BFB9F1010FADF897
:100CB0002640ADF82240704700F1B0012046384789
:100CC00028464FF4A02118F013BF50460FF00BB880
:100CD00000F5807120463047284618F0AFB9122041
:100CE0001BF070B8284618F08AB80022E86800F1B6
:100CF0004801204617F027B80022E86800F11801E3
:100D0000204617F020B87078022102287047F0685A
:100D10004FF4803200F1080120463847F0684FF464
:100D2000403200F1F0012046384700F1280120460A
:100D30003047D0E90534C069240244EA034318432C
:100D400070471868013A41F10005002C7047C260F5
:100D5000C2681143C1607047024628460E2112F056
:100D60008DBAD8F80400102119F01BBA521A514458
:100D7000013212B2101A022290FBF2F008447047BE
:100D8000284612F075BAB14690FBF1F0F18A511A7B
:100D90006FF001024044013109B291FBF2F170475A
:100DA00000EB8000502101EB40006FF09F0190FBB1
:100DB000F1F070472A46014600F0D4BBBDF86C0044
:100DC000081A01307047BDF9E0100FFA8BF238466F
:100DD0002B460DF015BCBDF86C00BDF86E50ADF89B
:100DE0007400BDF87000ADF8780002208DF8600046
:100DF00014AF704701EBD030A8F806007047ADF88B
:100E00009C80ADF85000BDF8A800704740462946C8
:100E100016F0E6B8013252086A4302EB64023A4423
:100E2000704798F8140000F01F007047E86804222B
:100E300000F1A00120463047002118F087BE84F859
:100E40003C0020461FF044BC28464FF48041304708
:100E5000009509F091BBADF8007000F060BC20F087
:100E600007008146406859F8081B7047A08ABDF802
:100E70003810BDF83A200144ADF83810E18A0A4430
:100E8000ADF83A20BDF83C201044ADF83C00BDF868
:100E90003E00084470470698DDE90732AAEB0701D7
:100EA000009030461EF0BBBC4FF4A02118F009BEE4
:100EB000A18F0089ADF80410BDF80610704700F14D
:100EC000280120463847E868202200F1D801204652
:100ED0003047E868202200F1580120463047E86892
:100EE000002200F1D00120463047E868002200F1DE
:100EF000B001204630470022F06800F1180120467A
:100F00003847706DF76801215047706DF568012111
:100F10005047706DF56803215047F0682A4600F18C
:100F2000D80120463847086840F001000860704743
:100F30008358194381507047204601F082BED8E99A
:100F40000020082112F09AB90190204403940090E7
:100F5000384617F015BF90FBF1F00022284401B28B
:100F600020467047019902206FF0010291FBF0F0DA
:100F70000FFA88F191FBF2F10844704728464FF4CC
:100F80008031704720F4FC72083000F4FC7188183E
:100F900070470C9D01462A4600F0E4BA08441699B1
:100FA00018901A9808441A90704700210DF098B9CB
:100FB000484641460EF097BE82EA5121C9B21EF062
:100FC00080BEB0F80100C0F38A0010FB0210704729
:100FD000E868082200F1A80120463047002118F0F7
:100FE0008ABE4180C1881144C1807047204617F0F5
:100FF0005BBF0898DDE90632A4EB0B010090484680
:101000001EF00DBC4FF4A02118F0B9BE304612F00E
:1010100031B900F1280120462A46384700F1200561
:1010200000200CF057BB0B6823F001030B607047E6
:10103000D8F80400202117F03ABA02230144101A0C
:10104000009A013000B2801A70473A4612F016B981
:10105000029902206FF0010291FBF0F00FFA8BF180
:1010600091FBF2F1704700EB8000502101EB400052
:10107000A02190FBF1F7704704EBD030B9F80240A3
:10108000ADF858000B985047C0F34513C1F3451411
:10109000C1F3C42570470598BDF966108068A0EBC0
:1010A000410030F81400ADF8480070470332920850
:1010B0006A4302EBA4023A447047F068082200F148
:1010C000A8012046384701EA90000A990A5E09996A
:1010D000095ED8F800007047091A013109B291FB86
:1010E000F2F1084412917047204619F01FB800F041
:1010F000FC000B990D9A02300B920D918DF84E0069
:1011000070470146A58F20461DF0E0BE013A41F12F
:101110000005002CC0F340007047304612F036BD89
:10112000304641F6FF72002305F072BC401AB0FA57
:1011300080F0400970470221328B90FBF1F0B18AB8
:10114000511A6FF0010248447047002100224FF00D
:10115000FF33009408F0B8BD05EBD030ADF85C006B
:10116000119845880D9850476FF30F011944704747
:101170005046224633460DF043BA0732D2086A433E
:1011800002EBE4023A447047F06805F11C0200F1FA
:101190005801204638471B213A4612F06FB8E80044
:1011A0004FF0011121FA00F0C1B27047B4F92030BC
:1011B000E08BD4E90512C5187047204618F04DBFE2
:1011C000BDF92E00696A079ABDF9303041F6FF7605
:1011D0007047A8EB05000122084401B22046704781
:1011E00040464FF4805118F0DCBF20462946324675
:1011F00018F014B8009C584617F015BE0CB20CF04D
:1012000069BA04EBD030ADF85C0070475046224616
:101210000DF0F6B970780A21022870474FF40031BA
:1012200018F065BF284612F023B89DF84E000F91C4
:10123000002D00F0FE018DF84E10704728464FF447
:10124000E021704700686422407EC0F16401002004
:1012500070470023054617F048BE0C4605461AF0B5
:1012600073BD04EBD030ADF858007047BDF96C1079
:1012700050463A4623460DF0C3B9E868002200F113
:101280007801204630470699284600F06BB9204681
:1012900018F00DBF42F2D171884270472846FFF71F
:1012A00004B830464FF4007118F07BBF284618F0A0
:1012B000FABA0C46054616F027BF5A3000B250471E
:1012C000BDF94010239832B223460DF099B9706DE4
:1012D000F768504700F00700032870470B990D9AF4
:1012E0001FFA88F008F063B8404647F6FF711DF01A
:1012F000EDBD7047704780B503F02EFB0120BDE8BF
:1013000080401DF0A5BF000018B53F48016841F4BA
:10131000700101603D48016841F001010160016810
:101320008907FCD5816841F080018160002100912E
:1013300000994F2902D800990131F8E7816841F0FE
:10134000900181600021009100994F2902D80099F5
:101350000131F8E781682E4A21F0030181600168BC
:1013600011400160016821F4802101600021816049
:101370008268284A4260C160026842F4803202609A
:101380004FF6FE720468013A41F10003A40301D450
:10139000002BF7D10168890300D4FEE7016C41F00E
:1013A000805101641C490A6842F440420A60826824
:1013B0008260826842F400428260826842F4A052F5
:1013C0008260164A4260026842F0807202600268DF
:1013D0009201FCD50A6842F480320A604A68D2035E
:1013E000FCD50A6842F400320A604A689203FCD5D0
:1013F000816821F003018160816841F00201816010
:1014000081680907FCD518BD88ED00E0003802406E
:10141000FFFFF6FE10300024007000400878400AFC
:1014200070B54FF08040012121F0A2FE60B34FF073
:1014300080400121012421F098FE144A234800260F
:101440004FF6FF7115880388B6EB552F01D1072B96
:1014500007D8B5F5606F06D3B3F5467F4FF6FF7436
:1014600001D823440380528800244388B4EB522FD0
:1014700001D1072B06D8B2F5606F05D3B3F5EC7F29
:1014800002D801211944418070BD00BF1C7D01209C
:1014900080B5012022F040F8B8B1012022F034F8E4
:1014A0000A48018801F113020531C1EA0241084AE4
:1014B0001160408800F11F011130C0EA0140506006
:1014C0000020BDE8804022F0A5B880BD8A00002041
:1014D0000869014010B50B4C0B49204622F015FB62
:1014E00070B1204622F0B4FAC1B2890051FA80F0FE
:1014F00001214200A4F58630BDE8104021F09DBDD9
:1015000010BD00BF0010014005030500FEE70268A2
:1015100000211378303B092B84BF08467047531CC9
:1015200001EB81010360127802EB41011A46303968
:10153000EFE70000B0B50848402101F0A0FB0748E4
:101540001421002200241DF0D7FE054D686002F032
:10155000CFFC2C70B0BD00BFD0020020153F0008AA
:1015600080020020F0B5B1F90030B2F90070B1F995
:101570000240B1F90450B1F906C0B2F90210B2F953
:101580000460B2F90620BB42C8BF1F4607808C42E8
:10159000C8BF21464180B542B8BF2E4686809445DB
:1015A000B8BF6246C280B74205DC10B209B28142C0
:1015B000DCBF0120F0BD0020F0BD2DE9F8430D4651
:1015C000B0F90070B1F900108F4238DBB0F9026059
:1015D000B5F902108E4232DBB0F90490B5F904106F
:1015E00089452CDCB0F90680B5F90600804526DC7B
:1015F00014463AB3694628462246ADF80260FFF722
:101600002AFCE0B1694628462246ADF80260ADF8F2
:10161000009000F084F890B1694628462246ADF863
:101620000280FFF718FC50B1694628462246ADF803
:101630000280ADF8009000F072F8BDE8F883002059
:10164000BDE8F8830120BDE8F883B1F90420B0F9C2
:101650000030934213DCB1F90020B0F9043093421A
:101660000DDBB1F90620B0F90230934207DCB1F985
:101670000210B0F906008842A4BF01207047002084
:1016800070472DE9F8430D46B0F90460B1F9001038
:101690008E4211DBB0F90670B5F902108F420BDBF8
:1016A000B0F90080B5F90410884505DCB0F9029066
:1016B000B5F90600814502DD0120BDE8F883144636
:1016C000EAB1694628462246ADF80290ADF800809E
:1016D00000F025F898B9694628462246ADF80290F0
:1016E000ADF8006000F01BF848B96946284622466C
:1016F000ADF80270ADF8008000F011F810B10020D4
:10170000BDE8F883694628462246ADF80270ADF878
:10171000006000F004F880F00100BDE8F8832DE9D6
:10172000FC470C46B0F90010B4F900308B420DDBD9
:10173000B0F90470BB4209DCB0F90260B4F90230C0
:10174000B34203DBB0F90650AB4202DD0020BDE836
:10175000FC87012A69DBA81B7B1A4FF0020CADF84D
:101760000260ADF80010013001331BB200B290FBF3
:10177000FCF993FBFCF30FFA89FE18B27045B8BF71
:1017800099460FFA89F09042A8BF914609EB010AE9
:1017900009EB0608684621460022ADF804A0ADF822
:1017A0000680FFF7BCFF20B108EB0900ADF806008A
:1017B0000FE0ADF80650A5EB09056846214600226A
:1017C000ADF80250FFF7ABFF40B1A5EB0900ADF853
:1017D00002000AEB0900ADF8040020E0ADF8047047
:1017E000A7EB0907684621460022FFF734FB20B12A
:1017F000A5EB0900ADF802000DE068462146002285
:10180000ADF80680ADF80260FFF789FF68B108EB1C
:101810000900ADF80600A7EB0900ADF80000684626
:1018200021461AF0D9FABDE8FC870120BDE8FC8703
:10183000F0B5B1F90030B2F90060B1F90240B2F987
:101840000270B1F90450B1F906C0B2F90410B2F94E
:101850000620B342B8BF1E460680BC42B8BF27462A
:1018600047808D42C8BF294681809445C8BF6246E3
:10187000C280F0BD2DE9F04F8BB005461DF0E0FCB5
:101880000021089102900DB1E86801E00BF01EFF05
:10189000DFF85C74386000691AF056FA39684869F4
:1018A00010B11AF051FA3968C8691AF04DFA38685F
:1018B000006A1AF049FA3868016900295FD0DFF838
:1018C000488400250DF1240B4FF0010AB0F85011A7
:1018D0008D4244D2411991F8301109B10135F5E733
:1018E0000024B0F850118C42F8D2011991F830114F
:1018F00091BBAC4230D000F1300101EBC50001EBEF
:10190000C401FFF7A2FE38B33868303000EBC501E0
:1019100000EBC4025846FFF78BFF5846C047064607
:10192000386800EBC5003030C0470746DFF8C00319
:10193000006800EBC4003030C0473844DFF8B073B3
:10194000864209D23868DDE9092300EBC50120444D
:101950000A634B6380F830A138680134C1E7B0F8FE
:10196000505100217960002D00F04581012D0ADBE6
:101970004119013D91F82F110029F7D104E0002110
:10198000A0F85011B1E1002501680024C9688A69F6
:1019900022F001028A61FEF7DFFE0395B0F85011D4
:1019A0008C4280F0F180011991F83011002940F04B
:1019B000E980AC4205D10168C9688A6942F0010238
:1019C0008A61FEF7C9FE0168CA688E6B9268326050
:1019D00000EBC402097C02F1300A890726D00BF023
:1019E00089FE804638680BF0CDFE013800210022C8
:1019F00000B20090A8F1010003B2584608F064F963
:101A00003868C6F804B00168D1E903018907826922
:101A100059BF816962F3410142F00201DA468161F6
:101A20003046C6F808A01AF051FAA0E032F8328F1A
:101A3000059411461546049231F8029F35F9044F7A
:101A4000CDE9061ABAF800A00BF09CFE844201DA38
:101A50002D8803E038680BF095FE451EA4EB0800C6
:101A6000411CA9EB0A00013009B203B238680068D2
:101A7000C4688269E468B4FBF3F88845C8BF884647
:101A800022B300214446D946ADF828100991671EBB
:101A90004946ADF82A709047BDF82610BDF92A00D6
:101AA000411A013109B2884507DA3CB2012C0ADB40
:101AB0008F48006800688269E9E721B2012902DBEA
:101AC00000F1010801E04FF00008894F04980FFA77
:101AD00085F90021008808FA80FAAAF101024A4536
:101AE00027DC5946C6E901BB14B239680968C968E0
:101AF0008B683360ADF8260007980088ADF82400A5
:101B000006980088ADF82A20AAB2ADF82800A145B1
:101B1000BCBFADF82A502C46A0B2824203D18869DE
:101B200040F00200886130461AF0D0F921B25046E8
:101B3000D1E7494519D03968C6E901BB079B096857
:101B4000C9688A683260069A1B8812888C6944F0DA
:101B500002048C61ADF826003046ADF82A50ADF88D
:101B60002430ADF828201AF0B1F9039D059C38689F
:101B700000EBC400303008F079F80146D7E90002E4
:101B800011447960013409E7A9B30168097C890728
:101B900017D50BF0AFFD064638680BF0F3FD0138A2
:101BA0000021002200B20090701E03B2584608F0D7
:101BB0008BF838680168896BC1F804B003F048FEFF
:101BC000386830304FF4807115F00AFA38682021F7
:101BD00000F5987015F004FA38680021A0F850114B
:101BE00002981DF027FB089038680068436A13B11B
:101BF0007A680899984715F041F800F0ABF800F0C2
:101C000085F8FE69A6BB0BF061FD0BF087FD13F0B4
:101C100035FF7F210022064619F0E8FF30460021FB
:101C2000002219F0D8FF30464FF6FF7100221AF05B
:101C300035F8FEF74BFC1AF025F8FEF747FC1AF0D2
:101C40000FF8FEF743FC1AF011F8FEF73FFC1AF00C
:101C500013F8FEF73BFC1AF01BF826A1304614F0EF
:101C6000CFFD304606210022002316F0B6F8FE61B3
:101C7000B8681DF0DFFA80084A280CD8786841F26D
:101C80008931884231D3D7E90301089A10440131E0
:101C9000C7E9030129E01DF0D3FAB8603868396953
:101CA0004FF47A7240680068B2FBF0F039B1FB681B
:101CB0005143002B08BF0123B1FBF3F500E00546BB
:101CC0000021C7E90311854288BF0546D7E9050110
:101CD00029440130B96178611DF038FBC0F164031B
:101CE00005A130462A4614F0C1FD0BB0BDE8F08FC7
:101CF000980100203F0000002575204650530A251A
:101D000075252520435055006D9C0008B0B5074D42
:101D10000024702C08BFB0BD285908B115F02AF86E
:101D200028191C2115F05CF91C34F2E71803002077
:101D30000749096859B14A68824202D00A6882425A
:101D400003D10A7E42F001020A761431F1E77047AE
:101D5000187D0120704700000148042100F08FBF6A
:101D6000C402002001481C2100F089BFDC020020D1
:101D70002DE9F84F0A9D044653B9B5F5807F07D188
:101D800000202060501EE080481EA080BDE8F88F33
:101D90000B9F4FF0FF3C4FF00209B7F900607F88BE
:101DA00005FB06F0891B404269430CEB102E38B24C
:101DB00009EB1121121A6843A4F800E0A1806A43DC
:101DC000404209EB12220CEB1025002BE2806580CB
:101DD00000F09B800A20DFF838B693FBF0F630B2B3
:101DE00000EB8001A3EB4107D8470090701C00B2C4
:101DF000D847804606F15A0000B2D847C7F10A0911
:101E000009FB00F506F15B0000B2D847009A07FB1A
:101E100000500A25B4F900A0B4F902B0B4F9066084
:101E2000B4F904E009FB02F290FBF5F007FB08228D
:101E30000B9F411192FBF5F201FB0AF03F88521112
:101E400002FB160502FB1B0002FB0EFC07EB9020B9
:101E500007EB95250FFA80F82DB2404600954545D1
:101E6000B8BF284601FB0EF502FB165307EB932380
:101E70000FFA83F902FB1B5307EB93230B9F1DB251
:101E80002B46A945B8BF4B469842B8BF034602FB54
:101E90000AF023807F8801FB060301FB0B0001FB96
:101EA00006C601FB0BF102FB0E1107EB932307EBB8
:101EB000902007EB962607EB91210FFA83FA03B2E5
:101EC00036B209B29A4518460A46B8BF50468E4205
:101ED000B8BF32469042B8BF024600986280404583
:101EE000C8BF8046A945C8BF4D46A845C8BF45469E
:101EF000A5809A45C8BF53468E42C8BF31468B4223
:101F0000C8BF1946E180BDE8F88FB0B23A44014439
:101F10007044E280A180E91920806180BDE8F88FDB
:101F20002DE9F84F0446B0F90A00131AB4F9080075
:101F30000A1AE1892068B1F5807F0ED1D4E90B67D8
:101F4000616A07FB02F506FB135501EBA50507FBCC
:101F500003F106FB0211891017E0A56B05FB03F1E5
:101F60006A43A389491152116BB1D4E90B67636AC3
:101F700002FB07F506FB1155794306FB021103EB43
:101F8000A525891201E0636AD518B4F90420B2EBE3
:101F9000252F4EDD002D4CD4A36ACE18B4F90610BF
:101FA00037128F4245DA002E43D494F834104FEAAA
:101FB000252B4B0716D404F118080FFA8BF90FFAEA
:101FC00087FA238A40464946524611F0DFFEA08236
:101FD00040464946524611F079FE4FF000084FF056
:101FE00000091DE007FB02B989070BD400EB49018A
:101FF00004F1140002224FF0020814F0B5FF4FEA7A
:1020000049090EE009EB4909022200EB090804F135
:102010001400414614F0A8FF98F802004FF003089E
:10202000A07594F83400C00706D0A08AB0F5FC6F04
:1020300002D10020BDE8F88FE07C70B184F84880C0
:10204000C4F84490A4F84270A4F840B0E687A5878D
:102050002046BDE8F84F00F003B80120BDE8F88F36
:102060002DE9F04F87B0044690F83E0094F83C10FC
:1020700026686F290BD86FF07F02002581EA020ADB
:10208000B4F940100029C8BF4FF0FF350FE000251C
:1020900091290AD3B4F94030B4F90420C1F17F0A80
:1020A00001339342B8BF012501E04FF0FF0A6F28CA
:1020B0000CD86FF07F014FF0000B48400390B4F94B
:1020C00042000028C8BF4FF0FF3B11E04FF0000B6B
:1020D00091280BD3B4F94220B4F90610C0F17F0067
:1020E00001328A42B8BF4FF0010B00E0FF2003909D
:1020F00094F83400B4F81480A17D4007CDE90118AC
:102100004CD4B4F84000238AB4F9422004F11807F3
:10211000804E284401B23846B047ADF81800B4F8F4
:102120004200238AB4F94010584402B23846B047FE
:10213000ADF81400B4F84000238A284401B2B4F882
:102140004200584402B23846B04794F83490ADF893
:1021500010005FEA89704AD5B4F94080B4F9426052
:10216000CDF800A008EB05006B4D32460FFA80FA5F
:1021700038465146A8472B46054606EB0B0041461C
:1021800006B238469B463246984780465146384606
:10219000DDF800A03246D847AC4645E0606C94F8C4
:1021A00048105B4F022205FB0100311806A8B84712
:1021B000B4F90400616C94F848200BFB00F000FBBC
:1021C00002100222311805A8B847B4F90400616C66
:1021D00094F848200BFB005000FB0210022231183B
:1021E00004A8B84794F834905FEA897005D40020B9
:1021F0004FF000084FF0000C16E094F84810676CA0
:10220000B4F904000BFB01F34A1E05FB012C03FB90
:1022100000730CEB030013443A4405FB0121305CCE
:1022200016F8038016F801C0DDF80CB05FEA89717A
:1022300003D4FF205146A07538E05FFA8AF1019D72
:102240005FFA8BF681F0FF0303FB0CF215FB012212
:1022500008FB01F113FB0011C2F30722C1F30723AE
:1022600002FB06F786F0FF0113FB0171090A022A3F
:10227000A17598BF032B49D3032D514638BF0021C8
:10228000B8F1030F38BF4FF0000A032838BF4FF0F2
:10229000FF3A032A38BF4FF0000B032B38BF4FF033
:1022A000FF3BBCF1030F01D2029E0DE0CAB2029EB9
:1022B000FF2A09D012B9BDF8186005E0BDF8181062
:1022C00030460AF0B3FC06465FFA8AF2FF2A03D0D2
:1022D0002AB9BDF8100008E0BDF8140005E0BDF80B
:1022E0001010BDF814000AF0A1FC5FFA8BF242B1A5
:1022F000FF2A01D1304604E0B3B281B218460AF099
:1023000095FCA082012007B0BDE8F08F0020FAE71D
:10231000696F01088D3D0108CD3C01082DE9F84F9A
:102320000446B0F908004FF00A08DFF8E490B4F969
:102330000C20B4F90A10000292FBF8F60902C4E975
:10234000090130B200EB8000A2EB4007704200B2FE
:10235000C8478246F04300B2C8477843C7F10A0530
:1023600005FB0A0090FBF8F04FEA601BC6F15A002B
:1023700000B2C8478246C6F1590000B2C847784348
:1023800005FB0A0090FBF8F04011C4E90BB0A07CFB
:1023900011F076FD94F83420A17C02F0FE02104486
:1023A00084F83400084611F05FFDFF21E38841F610
:1023B000FC77A1752168DD082162218AA18221466E
:1023C00031F8192F8D70A57C02F0030205F01F066D
:1023D0002676A68807EA8606324442EA43320A8015
:1023E000291F0022032938BF012294F8341001F07C
:1023F000F90160F3410141EA820084F83400E08988
:10240000410801F50011B1FBF0F0A063BDE8F88FC1
:1024100011F70108F8B516460C4607461CF010FFE8
:10242000A2B2104C054639463346204612F06AF8EF
:1024300060B10020A062E06988B928461CF0FAFE6D
:10244000084C002808BF0120E06108E0054C2C2161
:10245000204614F0C5FD4FF00040A0620024204645
:10246000F8BD00BF0804002010B50848142100F092
:1024700006FC12F00FF840B10549064A064B074C1E
:10248000C0E90043C0E9022110BDFEE7E8020020D8
:102490000D3F010881410108214001083D3F01082D
:1024A000B0B505460C460846102114F099FD286881
:1024B0000178042908D0022908D0012908D1298AE5
:1024C0002180698A618003E00A2100E0E968616097
:1024D00042681AB12146BDE8B0401047B0BD2DE9B1
:1024E000F04F8BB0866A814646B3B9F8100020B928
:1024F000B9F81200002800F071810020ADF82A0020
:10250000ADF8280099F83C0000F00F00032840F0D7
:10251000FB80304616F0FAFD0446304616F08EFD7C
:102520000246B9F91010032023460090304603F00C
:10253000D1FE0546ADF82A000024F9E0B9F81000F4
:10254000B9F814100844B9F81610A9F81400B9F82D
:1025500012000844A9F8160012F09CFCB9F91620E4
:10256000B9F91410002402EBE23383EAE23293B2A9
:1025700001EBE13282EAE1318AB200210291CDE938
:1025800005239A4298BF01240068D9F82060007E94
:102590000890404207900020CDE90304002E00F08F
:1025A0002D813046102117F0FCFD002800F09A80A4
:1025B000DDE90510C8464FF000098142304688BF6A
:1025C0004FF0010916F00AFD054604EAD00B04EAB3
:1025D000900A304616F00AFE0446304616F0ACFC6F
:1025E0000990304616F02AFD0746304616F08EFD5B
:1025F000002C02DC0999012913DBBAF1000F04D089
:10260000B8F91610089A914207DABBF1000F08D00A
:10261000B8F91610079A914203DC0C210396029137
:10262000314609EA550105EA0902002F01DC0128BB
:1026300011DBC14622B1B9F91430089DAB4205DA6D
:1026400051B1B9F91430079DAB4205DC0323039661
:102650000293334600E0C146002C01DC4FF0000A33
:10266000099B002B01DC4FF0000B002F00DC002247
:10267000002800DC00212AB1B9F91400089A904220
:1026800080F2AF8029B1B9F914000799884240F36C
:10269000A880BAF1000F05D0B9F916000899884250
:1026A00080F29F80BBF1000F05D0B9F916000799A1
:1026B000884240F39680FEF7E0F8049C204301280E
:1026C00040F09C80FEF7EDFD20B9DDE90510814268
:1026D00040F29480304616F023FC064600287FF432
:1026E00060AF8BE0FEF7C9F82043012840F08680F8
:1026F000FEF7D7FD18B9DDE9051081427ED93046D5
:1027000016F00EFC064649E7304616F06FFD04460B
:10271000304616F011FC0346B9F912100C2022467F
:102720000090304603F0D6FD04460025ADF82800A1
:10273000304600260027002DC8BF0127804616F02E
:102740004DFC012100F0020321EA000281EA53015D
:102750003A4018BF0025002D48BF0126314002B97C
:1027600021B1002918BF0025ADF82A500021002210
:1027700000F0040300F00800002CC8BF012201256E
:1027800085EA930385EAD0001A4018BF0024002C84
:1027900048BF0121084002B920B1002818BF002419
:1027A000ADF828400DF12A010AAA48461EF0B8FAF1
:1027B000BDF92820BDF92A104046002318F008FE74
:1027C000B9F81400BDF82A100844BDF82810A9F87B
:1027D0001400B9F816000844A9F816000BB0BDE8BB
:1027E000F08FDDE905210C208A4288BF032099F88B
:1027F0003C1001F0F001084489F83C00039E002ED3
:10280000ECD0002099F83C10C9F82860C9F81400F1
:10281000029801F0F00100F00F000844802189F8CF
:102820003C00304617F0BDFC4EF20104C0B130460A
:1028300016F0D4FC03281FD0022828D0012838D154
:10284000F08A41F6FF720023013001B2304604F0F5
:102850003FF9A9F8320021B2F08A013802B223E030
:1028600041F6FF7021B241F6FF73009009F130008C
:102870000A4607F029FA53E0F08A718BFDF72FFF23
:1028800004F026F9A9F83200681E02B20BE0B6F98E
:102890001A10304641F6FF72002304F019F9A9F826
:1028A0003200B6F91A2021B23046002304F010F9A4
:1028B00003E041F6FF70A9F83240A9F8360030462F
:1028C00016F084FC03280CD0022815D0012821D151
:1028D000B6F91410FEF724FCA9F83000B6F914205C
:1028E00012E0B08A318BFDF7FAFE04F091F8A9F8F6
:1028F0003000681E02B207E0B6F91810FEF710FCAF
:10290000A9F83000B6F9182021B23046002304F0AF
:102910007FF803E041F6FF70A9F83040A9F83400D1
:10292000B9F8300008B9A9F83040B9F8340018B93E
:1029300041F6FF70A9F83400B9F8320008B9A9F8D7
:102940003240B9F8360018B941F6FF70A9F83600E0
:1029500030460921002210F091FC99F8010080070F
:102960007FF5C3AD3AE700002DE9FE43856A002DEF
:1029700000F0AF80044690F83C00000700F0A9800A
:1029800012F088FA814600684021467E284617F0FA
:1029900008FC08B90020A061284616F017FC804604
:1029A000284616F01BFC074694F83C0000F00F0088
:1029B000032813D00C2840F08A800020002F2083A9
:1029C0004FD0668B12F066FAFEF73CFC330417D04A
:1029D00011FB06F3304493FBF2F6F7E70020B8F161
:1029E000000F608357D0268B12F054FAFEF72AFCB2
:1029F00033041DD011FB06F3304493FBF2F6F7E7E6
:102A00000021ADF80A000DF10A0220466183002181
:102A10001EF086F9BDF90A305249284641F6FF7288
:102A200004F056F8BDF80A100844002102B215E07F
:102A30000021ADF8080020460022218302A91EF0E3
:102A40006FF9BDF908304749284641F6FF7203F097
:102A5000DFFFBDF808100022084401B22846012318
:102A600033E0B4F91A00FDF735FF6083284616F00D
:102A700063FA0646284616F0B9FB0246B4F91A1066
:102A80000C2033460090284603F024FC0246608365
:102A90002846002118E0B4F91800FDF71BFF208339
:102AA000284616F0CBFA0646284616F02FFB0346BA
:102AB000B4F91810032032460090284603F00AFCAF
:102AC0000146208328460022002318F081FC208B39
:102AD00008B1BDE8FE83608B0028FAD1B7B928465B
:102AE00016F084FB0746284616F026FA002F04DD70
:102AF000B0F1FF3F0ADC474202E0012806DB2FB1BC
:102B00003AB228460021012318F062FCB8F1000F08
:102B100016D1284616F092FA0746284616F0F6FA1D
:102B2000002F04DDB0F1FF3F0ADC474202E001283C
:102B300006DB2FB139B228460022012318F048FCE9
:102B400028460A214A4610F099FB60788007C0D4D5
:102B50000020A06294F83C0000F0F00084F83C00F3
:102B6000BDE8FE8301E0FFFFF0B585B00D460446E9
:102B700020B90AF0ABFD044600284BD0002075B305
:102B8000029020460AF0B6FD0138ADF80C00204650
:102B90000AF0F8FD01382946ADF80E00684602AA91
:102BA000FEF7E0FCB0B32068017C890727D4826976
:102BB0000AB16946904704F130014FF0FF366D4687
:102BC000B4F85001013686420CD22846002201F1A9
:102BD0000807FEF7F2FC00283946F1D01AE0A4F805
:102BE000500117E01F2807D8DDE9002304EBC001DE
:102BF00001300A634B6307E00020A4F850010298FB
:102C00000399206301206163A4F85001606808B152
:102C10001CF052FC05B0F0BD70B5044608B1656803
:102C20000CE000250AE02068294628444668204632
:102C300000F05CF8284614F09DF83546002DF2D1DE
:102C400070BD08B1406870470020704708B1426805
:102C500000E00022002122B1036801311A445268C9
:102C6000F9E7084670470068084440687047006804
:102C70000858704708B180687047002070470331DA
:102C8000002221F003018260C0E90012704710B5F4
:102C9000FDF7BEFC58B1216800224250421863681B
:102CA0005360626802B15050A168606001B110BD0C
:102CB000A06010BD10B5FDF7ABFC58B12268002331
:102CC000111D4350A3688350A26802B1505061683F
:102CD000A06001B110BD606010BD28B1416809B9A4
:102CE000806808B1002070470120704710B568B1B6
:102CF00042688A420BD0026884688B588C420ED09E
:102D0000141D085903B1185100B1835010BD026859
:102D100011444968416041B10020885010BD836072
:102D200003B1D0180021416010BD0021816010BDA9
:102D300010B504460068826812B1214690472068A9
:102D4000006808B12060F6E710BD806808B1C08A4D
:102D500000E0002000B270472DE9F04F91B0054629
:102D6000408CDDF868B016461F468A462A8440F03B
:102D7000040068842846BBF8082017F00EF82F845A
:102D80000446FDF7E3FC8146688C20F0040068846B
:102D90004C4500D16AD02E84FDF7D8FC80462846E9
:102DA00051462F8404F019FE0068BBF80810424613
:102DB0001AF012FDBBF80800602826D147F6FF760E
:102DC000B04518BFB14520D1284617F0AFF902270A
:102DD00090FBF7F4284617F0A9F990FBF7F0B045FF
:102DE00007D1611C421C09B20FFA82F84145B8BFF5
:102DF000884647F6FF71894507D1611C013009B249
:102E00000FFA80F94945B8BF89461F48FFF73FFFD1
:102E100078B30560C0E902A8C0F810900646BBF878
:102E20000800B08001AC204606F07EFAFF200A9030
:102E30000020CDE908000F4804900F4803900F4888
:102E4000CDE90160BBF800000B90DBE90301CDE99F
:102E50000610BBF8020040420C909DF8420000F0C2
:102E6000FE008DF84200204606F0AEFA11B0BDE833
:102E7000F08FFEE7A53702084538020869360208D8
:102E800001481421FFF7FBBEF40200202DE9FC47A6
:102E900004466FEA02086FEA0109002701AD4FF00E
:102EA000000A608CC0F3C500874280F0FD80E068B6
:102EB00000EBC70149688A0100F1EC8089B211EA90
:102EC000090201EA0801B1FA81F118BF012249099A
:102ED0004A4040F0DF8050F8376041F610012A4642
:102EE00030461AF0ABFA002840F0DC80304641F65C
:102EF0001101FDF7E0FA002840F0D480304641F699
:102F00001201FDF7D8FA002840F0CC80304641F697
:102F10001301FDF7D0FA002840F0C480304641F696
:102F20001501FDF7C8FA002840F0BC80304641F694
:102F30001401FDF7C0FA002840F0B480304641F299
:102F40006901FDF7B8FA002840F0AC80304643F242
:102F50000C01FDF7B0FA002840F0A480304643F29F
:102F60000D01FDF7A8FA002840F09C80304641F2A0
:102F70000101FDF7A0FA002840F09480304641F2AC
:102F80000401FDF798FA002840F08C80304641F2A9
:102F90000201FDF790FA002840F08480304641F2AB
:102FA0000301FDF788FA00287CD1304641F2050183
:102FB000FDF781FA002875D1304641F20601FDF790
:102FC0007AFA00286ED1304641F23201FDF773FAE9
:102FD000002867D1304643F60F01FDF76CFA002850
:102FE00060D1304643F60E01FDF765FA002859D14D
:102FF000304640F60A01FDF75EFA002848D1304617
:1030000040F60B01FDF757FA002841D1304643F650
:103010000F01FDF750FAD8BB304643F60E01FDF71D
:103020004AFAA8BB304640F63C01FDF744FA78BBAB
:10303000304640F63D01FDF73EFA48BB304640F6CB
:103040003A01FDF738FA18BB30464FF40461FDF73A
:1030500032FAE8B9304640F64501FDF72CFAB8B926
:10306000304640F64101FDF726FA88B9304640F671
:103070004201FDF720FA58B9304640F64301FDF70A
:103080001AFA28B9304640F64901FDF714FA18B18A
:103090004FF0020A013704E7BAF1000F08BF4FF002
:1030A000010AF7E74FF0030A5FFA8AF0BDE8FC87F0
:1030B00005480068704700BF80B5034818210830F4
:1030C000FDF7E8F880BD00BF98010020C0F30410B0
:1030D000072828BF0720704780B504481821FFF74C
:1030E000CEFD03480121417080BD00BFA002002039
:1030F000000300202DE9F041D0B116460D460446EC
:10310000FDF7D3F8DFF8C082074620462946D8F8F5
:1031100000209047D8F800200546204431469047CB
:103120002118381A854203D84A5D62550135F9E7FE
:10313000BDE8F0812DE9F041DFF8308214460F46FA
:1031400019461D460646D8F804209047386030B12D
:103150002868D8F8042000213044904700E000207F
:103160002060BDE8F08100BF2DE9F04F8FB0189EC0
:103170001C4689460EB100213180B8B10178A9B151
:10318000B9F1000F12D00192199A12F0060F1AD05D
:10319000421C0020012342F201440D2903D803FA06
:1031A00001F5254206D1115C0130F6E700200FB091
:1031B000BDE8F08F002918BF0130002EF7D04FF680
:1031C000FF713180F3E702F0010100230022CDF806
:1031D000089000900A9101218DF833300B9300295B
:1031E00000F0B08021B20129C0F2AC8000EB030AEC
:1031F00000200021CDE9072309905C480E91426828
:1032000050460EA9904783460E9803944FF0FF3620
:103210004FF00008002500270D90A0B20024069072
:10322000D946059404971AF80400002858D04F484E
:10323000426850460DA9904780460A9858B10DF152
:103240003300494600F0C2F838B1DDE90D0401371A
:10325000C1460E90E7E7059C01E0CB460497DDF8F8
:10326000089059464246484610F028F9054400B2F5
:1032700001993FA30028C8BF0D4428B2069A411AFD
:1032800091422146D8BF4FF0FF31721C08BF0E4655
:10329000BBF10A0F1BD0BBF10D0F18D0ABF59C4151
:1032A00045F2A612914212D301370021072904D01A
:1032B0005A5C01319345F9D109E0DDE90D14C346AB
:1032C0000E91711C099908BF01460991A8E72CB914
:1032D000711C03D1049F002405460DE0049FD946CC
:1032E000701C05D0089BDDF80890099D7BB13AE081
:1032F000CB46DDF80890099D3FB1BBF10D0F08BF2B
:10330000B8F10A0F01D0264600E00E9E089B079AEE
:103310002A44AEB1009833440B9301780A290DD0AA
:103320000D290BD0C15C189E039C0D2903D0641B92
:103330000A297FF454AF01330B9303E0189E01E098
:10334000189E00980BB15EB90BE008494A680BA9BA
:10335000904736B101464846002210F0AFF80246C9
:1033600032800B9823E7189E079AECE7480000206C
:10337000202C2E3B3A2D5F002DE9F041D0B11446B0
:10338000C2B1054620468846FCF78FFF90B106463D
:103390002846FCF78AFF07460B4841460268284644
:1033A00090478119AA19F3198B4205D3EB5DD355C8
:1033B000013FF8E7BDE8F081284421463246BDE8E8
:1033C000F04113F0D9BD00BF54000020037802463D
:1033D000232907D1032B0DD2012121EA0300DB00B1
:1033E000D94005E0012B05D10120202901D102217E
:1033F00011707047002070472DE9FC4104460B46D0
:10340000CDE90011002000214FF0000822461CF0F9
:103410006DFB451C0746284613F01EFC50B100F812
:103420000780294622460646019B1CF05FFB30467A
:10343000BDE8FC81FEE72DE9F047DDF820909846D5
:1034400015460E46824695B16F08504607FB086444
:103450002146C847012803DA00283D46F3D407E097
:1034600065F0010004EB08063844451CEBE7002436
:103470002046BDE8F0872DE9FE4F06461298984693
:103480000292DDE91039DDF838C0DDE90CB20D46F5
:1034900010F00201019125D1B9F1000F09D0C10747
:1034A00009D0BCF1000F0CBF10F00C0FA9F10109FD
:1034B00001E04FF0000930219A4238BF202A03D2A0
:1034C0000BF802100132F7E700F001073021144633
:1034D00047B14C4505D21F2C03D80BF8041001341A
:1034E000F6E72246C10633D50F9F41050DD462B1E0
:1034F0009A4218BF4A4508D1511E8A4618BFA2F108
:10350000020A102F18BF8A4600E09246102F07D1FA
:1035100010F020010BD1BAF1200F08D278210BE076
:10352000022F0DD1BAF11F0F0AD8622104E039B180
:10353000BAF1200F04D258210BF80A100AF1010A3F
:10354000BAF11F0F18D830210AF101020BF80A1046
:103550001F2A08D8BCF1000F01D02D2108E0410737
:1035600003D4010703D4924606E02B2100E020217A
:1035700002F1010A0BF80210029F80071BD0ABF189
:103580000104BAF1000F07D014F80A00FDF74AF958
:103590000137AAF1010AF4E7019810B93846BDE8ED
:1035A000FE8F02984442E0194845F7D22020FDF7EB
:1035B00039F90137F7E7029F54464C45DFD2202006
:1035C000FDF730F901340137F7E72DE9F04F93B0FB
:1035D000DDF870C00F461D461646DDF88490DDE923
:1035E0001F23DDE91D1BBCF1000F08BF29F01009E6
:1035F0000A95CDE90876BCF1000F04D119F4806476
:1036000001D000271DE009F020040DF12C0A84F000
:10361000610404F1F6080024BCFBFBF6454606FBFA
:103620001BC707F0FE0EBEF10A0F38BF30253D4420
:10363000671C0AF80450DC4503D31F2C3C46B446F3
:10364000EAD30BACCDE9021BCDE9004704A981E820
:103650000C0208AB0ECBFFF70EFF13B0BDE8F08FE6
:103660002DE9F04F93B0DDE91C65DDF89080209CDA
:1036700056EA050708BF28F01008002F07AF0FC74C
:1036800004D118F4806701D0002227E008F0200060
:10369000219F4FF0000A0DF12C0B80F0610000F12A
:1036A000F6093046294622463B46FCF79BFD00FBC7
:1036B000146202F0FE030A2B4B4638BF30231A4433
:1036C000331B0BF80A200AF1010275EB070305D33F
:1036D000BAF11F0F924606460D46E2D30BA8CDE97C
:1036E00000021E98CDE90204229804902398CDE9A7
:1036F000050807AB0FCBFFF7BEFE13B0BDE8F08F98
:103700009A4238BF88547047704700002DE9F04F47
:1037100091B0DFF824640029DDF868901093924698
:103720008B460DF1400818BF064600271878002880
:1037300000F0F581252840F0A080591C002510914B
:10374000087820280CD023280FD02B2812D02D2821
:1037500015D0302818D1013145F001051091EFE75F
:10376000013145F008051091EAE7013145F01005F7
:103770001091E5E7013145F004051091E0E70131D2
:1037800045F002051091DBE7A0F13002092A05D8C7
:103790004046FDF7BCFE109904460CE02A2809D1EA
:1037A00059F8044B01311091002C44BF45F002053B
:1037B000644200E0002408782E280DD1481C45F40E
:1037C000806510904A78A2F13003092B06D8404654
:1037D000FDF79DFE109909E0002007E02A2A30D16C
:1037E00059F8040B0231109120EAE0700C9008782F
:1037F000A0F168024FEA7202092A2CD8DFE802F031
:103800000912162B2B2B052B2B05013145F4807546
:1038100014E04A1C10924878682816D1023145F00D
:10382000C0050BE0013145F4007507E04A1C109219
:1038300048786C280CD1023145F440751091087815
:1038400009E000210C910146D1E745F0800501E037
:1038500045F480751146A0F162030E94132B17D81E
:103860000822DFE803F033A7110A0A0A0A110A0A3C
:103870000A0A0A351F0A0AB70A11FCF7CEFE109889
:103880000137431C109351E725F010050A2212E07E
:10389000252800F0CF80102278280CD058280AD094
:1038A0005028EAD111F8012F45F48875562A01D124
:1038B00010910878102240F00801582908BF45F0FF
:1038C0002005642806D0692804D001E00222622085
:1038D00025F00C05690548BF25F00105562812D0D2
:1038E000692801D0642834D1A8051CD40E9B0C9CF7
:1038F000E8053BD4680600F19F80D9F8000029064E
:1039000048BF00B29AE059F8040BAAEB07024168DD
:1039100009680F91036800910BEB07013046FFF730
:10392000F5FE0744F7E009F10700FDF798FA049265
:10393000002205920C9A06920E9ACDE90725C20F35
:1039400011EBE07140EBE07381EAE07183EAE07033
:1039500026E0A80518D4E8057CD4680600F1CC80E0
:103960002806D9F8000048BF80B2C7E059F8040B18
:103970000DF1040CCDE90435C10F0028ACE81600A8
:1039800000D54042009070E009F107000C9BFDF764
:1039900066FA06930E9B049200220592CDE9073544
:1039A000CDE900100292304659463A465346FFF799
:1039B00057FE5CE0444615F002085AD101257819FB
:1039C000421E0E98854256D2202059465346B04793
:1039D0000135F4E70C9C2146002C08BF4FF0FF3165
:1039E000D9F80080002018F800201AB1814201D0D7
:1039F0000130F8E7A042214638BF014615F4806245
:103A00000A9208BF014615F002000D910B903ED1BD
:103A10004C464FF000090D980E9907EB09054844F4
:103A2000884236D2202059462A465346B04709F1EB
:103A30000109F0E7252020E799F80000C10F0DF1FA
:103A4000040CCDE904350028ACE8160000D540424E
:103A500000905BE059F8040B00900020CDE90102D2
:103A60000C9803900E98CDE90405FDF7DEF80746A3
:103A700051E0012501E00135174619F8040BFCF768
:103A8000CCFD0137B8F1000F1ED1A04643E03D4602
:103A900003E0A1460C9C01300D900A9F09F1040936
:103AA00098F8000050B10FB144B1013C59462A4684
:103AB0005346B047013508F10108F1E70B9868B9A2
:103AC0002F460DF1400826E0A0460E9CA54222D2CA
:103AD0002020FCF7A2FD01370135F7E700240DF1A6
:103AE00040080D980E992F192044884213D22020A7
:103AF000FCF793FD0134F4E799F800000E9900906B
:103B00000C9B01AC00200DC4CDE90415FDF78DF828
:103B1000074609F104091098431C109306E657451F
:103B20003A465946534628BFAAF101020020B04741
:103B3000384611B0BDE8F08F09370008816841F0C0
:103B40000801816081680907FCD4816841F00401A3
:103B5000816081684907FCD47047B0B502290AD05A
:103B6000012919D1511E102916D24FF470016FF49A
:103B700070042C2307E0511E03290DD84FF4401187
:103B80006FF4401438231D5801EB025211402C40B1
:103B90001C501A5811431950B0BD00009D490A68C5
:103BA00022F4E022FCF71ABC10B541F208101CF018
:103BB00045FC4FF44030FFF7F1FF002000F024F9FE
:103BC0001A4C204600F072F8204600F074F82046A7
:103BD000002100F02DF820464FF48071012200F002
:103BE000EDF8204601210222FFF7B7FF2046002111
:103BF0000A22072300F0AAF8204601210B220723FE
:103C000000F0A4F820460121022200F061F82046CD
:103C100001214FF0407200F072F8204600F050F899
:103C20002046BDE81040FFF789BF00BF00200140DB
:103C30008268002922F4006218BF02F500628260E7
:103C400070470000B0B58AB040F616401CF0F6FB95
:103C5000134C00210025204600F05CFF4FF400309B
:103C6000CDE9065500210990022008904FF400602C
:103C7000CDE904500B480390012002900A480190BE
:103C800001AA204600F06CFF20460021002200F02F
:103C900037FF2046002100F02BFF0AB0B0BD00BF67
:103CA000006402401C7D01204C200140816841F4E9
:103CB000807181607047816841F400718160704754
:103CC0008168C90703D1816841F0010181607047B3
:103CD000012905D0022911D114216FF4401302E00B
:103CE0001C216FF0405310B5846802FA01F12340A3
:103CF0008360826811438160BDE8104070470129EC
:103D000004D002290AD16FF4702101E06FF07061D4
:103D100083681940816081681143816070470000A9
:103D200010B540F602401CF089FB074C032100222D
:103D30000123204603F0D0FE204603210022022367
:103D4000BDE8104003F0C8BE00080240B0B5052928
:103D50000AD801EB81011F25FCF7B6FE456B25EA69
:103D60000101214341631AE00B290BD801EB8101CA
:103D70001F251E39FCF7A8FE056B25EA010121432A
:103D800001630CE010290AD201EB81011F253C39A7
:103D9000FCF79AFEC56A25EA01012143C162092A9E
:103DA00003D802EB4201103005E0122A05D802EBDD
:103DB00042010C301E39FCF76CFCB0BD01F480737D
:103DC00082B11BB1426842F4807242604A0503D559
:103DD000426842F480624260890714D5816841F0EC
:103DE00002010FE01BB1426822F4807242604A0572
:103DF00003D5426822F480624260890703D5816856
:103E000021F002018160704702490A6822F01F0216
:103E1000FCF7E4BA0423014010B588B04FF4805099
:103E20001CF00CFB4FF080701CF04CFB40F2E730B4
:103E30002449002403902248CDF806408DF8104014
:103E4000ADF80A400068B0FBF1F00138ADF80400AD
:103E500001A94FF080401FF091F90120CDE90644FF
:103E60000121059005AA4FF080401EF0E7FFFCF706
:103E7000D1FA40F22B121FF0E0F8FCF7CBFA6022E7
:103E80001FF0C0F8FCF7C6FA00221FF0DDF8FCF7BF
:103E9000C1FA1FF0BDF94FF0804000211FF0EFF88C
:103EA000FCF7B8FA1FF061F91C20022100221CF077
:103EB00035F84FF080401FF053F908B010BD00BF37
:103EC0005000002020BF020080B14A1E11420CD1D8
:103ED000084449420138014008460C2998BF0C208B
:103EE000B1F5803F28BF00207047FEE700207047F3
:103EF00010B5584C012020705748FEF7A2FE01462D
:103F000060680029BDE8104018BF1BF0D5BA1BF04F
:103F1000C5BA00BF2DE9F0474E4FB8681BF08AF9CB
:103F200004467878DFF830A180F0010078705046C0
:103F3000FEF787FE06464FF000084FF6FF79002E89
:103F400000F0828096F83E00797887F80080C0F310
:103F500080028A426AD000F0FB0242EA8101020735
:103F600086F83E10F16A1AD4002918DC0A1916D412
:103F7000C00709D1316939B130468847F169726AA1
:103F800001441044F1617062B16809B1304688475C
:103F900096F83E00F16A40F0080086F83E000819E5
:103FA000F06243D4B16A8842C8BFF1623046B16959
:103FB00088470146306A814204D0726831620AB192
:103FC00030689047D6E90A0181422FDB96F83E100F
:103FD000B58F11F0020204D11DB14D451CBF013D4A
:103FE000B587736B2D0401D19BB192B9B56B6D424E
:103FF000F562DBB112B9326B5242F262706381F04A
:104000000200716AB36286F83E00F069F161706285
:104010000CE050463146FEF769FEFFF769FFF16894
:1040200009B130468847304612F0A4FE387801289E
:1040300004D15046FEF705FE064680E7504631465D
:10404000FEF711FE06467AE71BF0FAF8B860BDE805
:10405000F08700BF80020020D0020020B0B50546E6
:1040600040680C4610B12146FFF7F8FF2A6822B1DC
:1040700028462146BDE8B0401047B0BD89B205F0E2
:1040800067BD89B205F09ABD80B50FF0F3F806F070
:10409000CCF900EB8000012142000248BDE88040DD
:1040A0001EF0CBBF0004004010B504464068032852
:1040B0000AD94968043121F00301084460602046B0
:1040C00000F038F8204610BDFEE7F0B54B6823F04D
:1040D00003027F2A02D89A08002308E0B2FA82F38A
:1040E000C3F11A04C3F11903E24082F0200200EB8D
:1040F000C31404EB820454F83C5F5DB10E46C86003
:10410000E96046F8085F01F10B0525F00305AE42B2
:1041100001D0FEE7FEE701250769216005FA03F6F5
:1041200005FA02F13E43066100EB83004269114348
:104130004161F0BD10B5044600F080F8046010BD88
:10414000B0B5C9B380290A460BD3B1FA81F24FF05A
:10415000FF33C2F11A0203FA02F2D2430A447F2A61
:104160002DD89308002200EB82054FF0FF346D69D3
:1041700004FA03F32B400FD093FAA3F300EBC2141D
:10418000B3FA83F304EB8304E46BACB1656825F008
:1041900003058D421AD2FEE70132036904FA02F2E6
:1041A0001A4009D092FAA2F2B2FA82F200EB82032C
:1041B0005B69002BE0D1FEE700242046B0BD00245F
:1041C000B4EB124FF9D1FCF72CFACCE721461CF0E6
:1041D000AEFBF2E710B50446FFF7ACFF416841F0D3
:1041E00002014160606840F00100606010BD10B5E0
:1041F000044600F023F8416821F002014160606844
:1042000020F00100606010BD70B5064608460C46FF
:1042100000F014F880B105460079C0070AD0606844
:1042200003280AD93046294600F03AF820462946A4
:10423000FFF73AFF204670BDFEE7FEE7416803291D
:1042400005D9043921F00301084408307047FEE71E
:1042500070B539B12AB1054648680C46C10703D18B
:10426000FEE7FEE7002070BD02F1100120F0030020
:1042700088420FD32046114600F021F8064620461A
:10428000FFF758FF7068314640F002007060284622
:10429000FFF71BFF2046FFF7AAFF04F1080070BDDF
:1042A00010B54B6823F003027F2A02D89B08002236
:1042B00001E0FCF7B6F9BDE810401CF038BB10B5C2
:1042C000421802F10F0402F10C0324F00304A3428C
:1042D00000D0FEE7141D4268636822F00302521A00
:1042E00003F00303043A13430B2A636009D94268BD
:1042F00002F00302114341602046FFF76BFF2046A6
:1043000010BDFEE7BCB5044610F0C4FD054610F034
:10431000F8FD20B1208FE086FCF79DF924E02046CF
:104320000EF029FDE8B120460EF0B8FAE08E218F9C
:1043300081420AD02087019001AA20461C210EF05C
:104340009DFF012811D1FCF786F9284610F0E4FD05
:10435000042809D1204614F0A1FD00210FF094FC9F
:1043600002E020460EF0E8FD0120BCBDB0B50EF025
:1043700081FF044614F0D4FD0546204606F094FD66
:10438000014628460122BDE8B0401AF007B9BCB585
:104390000B88048945892344ADF800304B882B44B1
:1043A000ADF802308B88C98823442944ADF8043025
:1043B0004369ADF8061069469847BCBD2DE9F04F3A
:1043C00091B0CDE90930C878DDF878B0CDE90B219E
:1043D000DF49109210F001000790DC48069008BFFA
:1043E0000146DBF810E00891BBF80400BBF80210AE
:1043F000002374460022091A64B1DBF80C0018444B
:10440000057CED0719BF0089091A8089024414331D
:10441000013CF1E700234FF0000C002474452BD23F
:10442000DBF80C50E81890F810805FEAC87620D1CD
:1044300016B20FB2B0F9049097FBF6F6C7687E4348
:104440000FFA86FAB0F90660B245B8BF56464E4537
:10445000B8BF4E46564508D048F001054FF0010C54
:104460000574DBE9035EE818C768E818891BD21BEE
:10447000068114330134D1E75FEACC70B4D10A98D5
:1044800015F0D0F90C9D80460020BBF90220BBF945
:1044900008300DF13E04ADF83E00ADF83C00287840
:1044A0000FA9CDE900411C991BF0F0FD0798A84920
:1044B0000028069808BF08460690A749A54808BFE7
:1044C00001460391E878C0070AD0B8F1010F07D17F
:1044D0000A9C204614F0A7FCBDF83E100F1802E01D
:1044E000BDF83E700A9C0B99204614F039FCBDF8CB
:1044F0003C2004461D98994D1146104405920B9995
:10450000049010AECDF81C80002C00F01B8109989F
:10451000814200F017812046294615F046FE10B171
:104520000C980A9C04E1204615F0F6F958B1DBF826
:104530001010002061B1DBF80C201358A34209D001
:1045400001391430F6E7608C20F4C060608430E0FC
:10455000002501E0104405890C9804F11406C07888
:10456000C0074FF4806008BF4FF40070618C0843AF
:10457000089960843046884780B2854219D0204629
:1045800016F0BEF86069A169039ACDE90D0129B260
:1045900030469047204629210DAA0EF06FFE204696
:1045A00014F0BEFC222122460EF068FE204616F0D2
:1045B000A7F80C994878012810D0022818D106993C
:1045C000BBF9005004F114008847691C022221F055
:1045D0000101081A0C9990FBF2FA0BE00699BBF85E
:1045E000005004F1140088470C99A5EB000A01E083
:1045F0004FF0000AC878C00708D0B8F1010F05D104
:10460000089904F1140088473E1A00E03E4620460F
:10461000002143F20C0215F0C0FB80462046002129
:1046200043F20D0215F0B9FB0746204608F4C045D9
:1046300015F07CFD8146204614F036FCB5F5005F90
:1046400010D10FFA88F121F4C041B1F5FA6F09DCFD
:10465000B1F57A7FC8BFC1F57A7101FB09F1642217
:1046600091FBF2F807F4C0410B96B1F5005F0ED153
:1046700039B221F4C041B1F5FA6F08DCB1F57A7FA7
:10468000C8BFC1F57A714843642190FBF1F7DDF8AA
:1046900030C01B9B5246A1460B9E9CF803003B4436
:1046A00010F0010108BF324639F8147FB9F8025002
:1046B0005B1B9D181A9A002918BFB2464244D21BB0
:1046C00002EB0A0646EA050212041BD020466746A2
:1046D00016F016F8A08A3044A082208B3044208344
:1046E000E08A2844E082608B28446083204616F0EC
:1046F00007F831B22AB22046012316F07CF8F87888
:1047000000F001010A9CDDF81C8010AE134D0B9FD8
:1047100029B1B8F1010F02D104997F1A09E0089973
:10472000484688471D9939440844059947180C980C
:10473000C078C0F380012046324602F0F2FF1099A3
:104740000446E1E611B0BDE8F08F00BF559C0008BB
:10475000899C0008D79C0008E19C00080100060025
:104760000349DD4A19B122F8020B0139FAE7704713
:1047700000DC0500022A23D9B0B5FCF785FC2344F0
:10478000C0F3C42400F01F003F2B28BF3F232C445C
:104790001F251F2C28BF2C46E40263F34A1401F0A6
:1047A0001F0318441F2838BF054644EA0500FF2AA6
:1047B000BDE8B04003D080B289B208F01DBA01460E
:1047C00008467047022A21D9B0B500F01F0301F056
:1047D0001F04C1F3C4256343C0F3C424C0F34510D0
:1047E0006C4324F01F04A40144EA5313C1F345149D
:1047F00060436FF01F0404EA5000FF2A1844BDE82C
:10480000B04002D089B208F0F7B9014608467047B7
:10481000022A1ED9B0B5FCF737FCE31AC0F3C42452
:1048200000F01F002C1B23EAE37324EAE474E40283
:1048300063F34A1401F01F03181A20EAE0702043C2
:10484000FF2ABDE8B04003D080B289B208F0D4B9E5
:104850000146084670477CB504460EF00BFD054640
:1048600020460EF0F1FC0646284614F059FB04469B
:104870000A2E09D02B2E2FD1618D2046002202B0A6
:10488000BDE8704019F08ABE01A9284614F0AEFBBD
:10489000284614F0C8FA0546204614F0D3FFBDF9A7
:1048A0000410012808BF4942022095FBF0F001FAEC
:1048B00080F090FBF5F00025010458BF05B2668D2D
:1048C00020462946012219F069FEB54204D020464F
:1048D0001C2100220EF0D2FC7CBD002141F6FF72AB
:1048E00030F8113001319342FAD1481E7047E0B5DB
:1048F00090F8502002F001038B4221D0002918BF0C
:10490000012102F0FE021144426A80F85010B0F812
:104910004410938AD28A1944ADF80010B0F84A10B6
:104920001144ADF80610B0F848101944ADF8041061
:10493000B0F846101144ADF80210694615F0F9FEC2
:104940008CBD88B2114608F0CDB8704706490860A2
:1049500008680028FCD170470348016811B101685C
:1049600001390160704700BF107C01201CB5CB8865
:104970008A884C880888584901910349009121464A
:1049800004F096FA1CBD00BF000500202DE9F0439D
:1049900097B041F21A101BF051FD1EF045FC962015
:1049A000022103221BF064FD002800F08C8000200F
:1049B00000241BF095FD1C201BF0B4FC1C201BF0F8
:1049C000B9FC002800F08080404840F22B35CDE94A
:1049D0001544CDE913441294CDE910440D950A9085
:1049E0003B480B9040F233300F9040F2F7100C90A0
:1049F00040F207200E900AA81EF042FD1820CDF8C4
:104A00000D40374CE846ADF800504FF007094FF421
:104A1000C067FF250226ADF806002E484146CDF8B6
:104A2000189005978DF80C500296CDF802002A4890
:104A300007904FF4F070ADF8240028480890204605
:104A40001EF07EFD2748029604F180068DF80C507A
:104A5000CDE9057907906FF0FF00CDF80D000F202C
:104A6000ADF82400204808902048018840884A1D5D
:104A70001F301331ADF80010ADF80600ADF804009A
:104A800030464146ADF802201EF05AFD20461EF089
:104A900051FD30461EF04EFD40F2D9101EF0B0FD23
:104AA0001EF0BAFB00201EF0B5FD01201EF0B2FD85
:104AB00001201EF023FD5820002100221BF02EFAB9
:104AC00017B0BDE8F083FEE7FEE700BF0700030074
:104AD00017000B000C00F701000000C04006430661
:104AE00000680140D87C02081E0021008A000020D6
:104AF0007246FBF7D9FD964641F00101016170470E
:104B00007346FBF7D1FD9E4621F0606141EA4261A8
:104B10000161704701EB410200EBC202136923F00F
:104B2000010313610023136153619361D361136225
:104B3000212353620B460A1F28BFD3B203EB430263
:104B400003F002035B0003EB42023D2303FA02F28F
:104B50000C23042938BF08231958114319507047F2
:104B6000B0B501EB41011D4B00EBC100416A21F0E2
:104B700004014162116881619168C161D16941613B
:104B80000169156A946919401369194341EA83015F
:104B90002943214301615168012907D00029016996
:104BA00014BF41F4004141F4007102E0016921F4B5
:104BB00000710161D168036923F48063002908BF93
:104BC00003F5806303615169026922F48072002950
:104BD00008BF02F580720261B0BD00BF3F87FCFFD5
:104BE0002DE9F04F9BB08346C8780328C0F0B3810D
:104BF0000F46108851889388D288B7F92040ADF8C5
:104C00006400ADF86610ADF86830ADF86A20022C8B
:104C10001BDB97F82240FD2C17D33C88ACB197F8EA
:104C20002340C4F34005521BADF86A20C4F30012C0
:104C30009A1AADF86820C4F380021144ADF86610EA
:104C4000C4F3C0010844ADF86400DBF8082017A8DD
:104C500019A9FCF787FC002800F07D81F87B0DF195
:104C6000640810F0070A4FF0060008BF04203E5AFF
:104C70007C89404609F004FD054610A81C21FBF77D
:104C800009FBB878321BADF84860A9468DF8590089
:104C900018BF5246388865B958B9110609D1F87855
:104CA000CDF840808DF8580010A958460BF01BF83D
:104CB00051E105B2BDF86400BDF86810029207F139
:104CC000060C4FF0000A081ABDF86A10013004B251
:104CD000BDF86600081A01300FFA80F840464445D6
:104CE000B8BF2046B5EB600FA8BF45100020002DCF
:104CF000C8BF012040EA0902BDF85C10BDF86000A1
:104D0000431A01331EB2FB78FC2B88BF4FF0FF33F0
:104D10000393CDF81090012A17D13046674611F061
:104D2000C5FF0DF1280982462AB219A90023484679
:104D30000AF076F84846002109F0D2FA0190BDF851
:104D40006000BDF85C10BC4602E04FF6FF720192B5
:104D5000ADF82400FF20ADF82010CDF84CA021467E
:104D600042468DF8580008A81590109060460EF045
:104D70008BFD029B60B1D9B2022909D18268BDF9CD
:104D80005C1002EB4102BDF96410A2EB41011191EC
:104D90000499059029B30398BDF95E40DDB20DF189
:104DA0004008C7B2BDF96200844200F3BD8050469E
:104DB00039463246ADF82640ADF8224012F0E4F80C
:104DC000FBF7CBFD012808BF02208DF85000012D14
:104DD00001D1FCF760F9584641460AF084FF0134DE
:104DE000E0E7039800275FFA83F9C0B20490AF426E
:104DF0004ADABDF86600384404B2BDF86A00C01B48
:104E00000FFA80F8BDF95E00844203DABDF9620052
:104E1000804537DCFBF74CFEBDF92010FCF7A8F904
:104E2000012808BF02208DF85000BDF95E008442C1
:104E30000FDBFBF73AFF08D10599BDF966008968D9
:104E4000201A31F81000ADF84800584610A90AF0B1
:104E50004AFFBDF96200804514DCB9F1010FADF8DD
:104E60002680ADF8228009D10599BDF966008968D0
:104E7000A8EB000031F81000ADF84800584610A922
:104E80000AF031FF0137B2E7BDF86400ADF8180051
:104E9000BDF86800ADF81C00BDF866002844ADF808
:104EA0001A00BDF86A00401BADF81E0006A809F004
:104EB000E7FB804610B90298000622D00120BDF918
:104EC0006A108DF8500003984F1B8DF85800BDF9FB
:104ED00066002C1810ADBC4226DCB8F1000F05D0DE
:104EE000FBF7E6FDFBF739FD8DF85000FBF7DDFE23
:104EF00001D1FCF7D0F8584629460AF0F4FE0134F7
:104F0000E9E703988DF8580000201390BDF866007B
:104F10002844ADF82200BDF86A00401BADF8260019
:104F200010A958460AF0DFFEBAF1000F02D0504631
:104F300011F00EFF019A4FF6FF71059C90B2884266
:104F400005D010B20AF064F90AA809F07DFB14B18B
:104F500020460EF092FC1BB0BDE8F08F2DE9F04723
:104F60008EB080460869002800F0F7808946897E67
:104F70000329C0F0F28016460FF04AFF02284DD1F7
:104F8000D9E904124FF0000A41F6FF700023CDE981
:104F900000A0CDF808A00DA81AF0E0FB3488B7886F
:104FA000BDF9341002256FF00100BDF936203F1B1A
:104FB00091FBF0F392FBF0F001373FB297FBF5F76E
:104FC0003C4423441944ADF82C30F3880139ADF842
:104FD000301071885B1A01331BB293FBF5F319444F
:104FE0000844ADF82E0010440138ADF8320003AC8F
:104FF000204609F045F9D9E9043021460390B9F873
:105000001800ADF8180099F81A00CDF800A08DF836
:1050100026000BAA404608F0C9FE9EE0D9F8100011
:105020000DAC21460FF042FA012840F0968003A80B
:1050300008F0AAFEB9F8180099F81A1099F81C306F
:1050400099F81B20ADF8140099F802008DF817109C
:105050009DF81810002B8DF8162000F00F0001F0BD
:10506000F00108448DF8180044D09DF83700BDF8D1
:1050700035107288651C41EA0040ADF82E2003AF60
:105080000BAC02EB5033410B013BADF83230B6F9BB
:10509000063012B29A4260DC3288C0F38A031344AD
:1050A000ADF82C20013BADF83030B6F9043012B227
:1050B0009A4216DCD9F8103040463946224608F0AC
:1050C0004DFDA8782988BDF82C20BDF8303041EA84
:1050D0000040C0F38A010A440B44410BADF82C2078
:1050E000E1E7BDF82E20BDF832300A440B44ADF89C
:1050F0002E20CAE79DF83700BDF83510F38841EA45
:1051000000407188A1EB9032591A0223013109B293
:1051100091FBF3F11144B288ADF82E1001EB503140
:1051200080B20139ADF832103188521A013212B210
:1051300092FBF3F2D9F810301144C0F3C902C0F366
:105140008A00891A0844ADF82C100138ADF83000F7
:1051500003A90BAA404608F001FD0EB0BDE8F08798
:105160002DE9F04FA7B00E9008461E461746884618
:1051700009F086FA0DF1C009044699E821020CB93C
:10518000304329D00E98414682681EA8FCF7EAF900
:10519000002800F03182BA46BDF87870BDF87C5026
:1051A00020A81C2111F01CFFE81B01300FFA80FB26
:1051B000584611F07BFD012E23900A9437DB0DF148
:1051C0006009414632460023484609F029FE484618
:1051D000002109F085F82CE020A81C2111F000FF27
:1051E0008DF89890ADF8885018A8B7F90240B8F932
:1051F0000250B8F90060B8F904A0B7F90410B8F982
:105200000690B7F90030B7F906B02090601EADF8EF
:1052100064A0ADF86060ADF862500F91A542ADF8A2
:10522000660040F3EC813A4648465946F3E14FF6B2
:10523000FF70DDE930250DF1480909905146012341
:1052400037465446484609F0EBFD484600214FF0EA
:10525000000A09F045F8844610A8B8F90010B4F91E
:1052600000E0ADF88850B8F90250B8F90620B4F95A
:105270000290B4F9043008942590209033980E449D
:105280000D91B4F906108DF8990032988DF89800B8
:10529000B8F904007645D8BF76460B930C90C01B36
:1052A0009842A8BF18460790D31B28468B42A8BF38
:1052B0000B460F953D444D45D8BF4D460A98A8B3BF
:1052C000BDF878008A422EB2E0461FB2ADF8400029
:1052D000BDF87C00ADF84400B8BF4FF0010ABDF93D
:1052E0007A5020ACBDF97E00854240DC0F984845DD
:1052F00001DDB54218DBBD424FF00000C8BF012000
:105300001AEA000F33D123985946FBF7C4FBBDF9C5
:10531000781023982AB25B4609F072F98DF8900054
:105320000E9821460AF0DFFC0135DBE70D98029765
:105330000693674614467045CDF828E0CDE9031280
:1053400023DCDDE90B2090421FDB0F9848451CDC75
:105350008C421ADB0798801B013000B2312814DC24
:105360000120DDF838A000248DF8900040E012A85C
:1053700009F06AF9404609F04BFF099C4FF6FF71AE
:10538000A0B2884240F02F8133E101208DF89000D7
:105390000F984845DDF838A014DC07980195ADF862
:1053A00040600D46ADF844000F98ADF84200A9F1F9
:1053B0000100ADF8460020A9FBF787FC2946DDF87F
:1053C00028E0019D8C4212DB0798ADF84060ADF8F3
:1053D0004400B8F80600ADF846000898C0880130CF
:1053E000ADF8420020A9FBF770FCDDF828E00124AD
:1053F0000D98704512DC0698ADF84250ADF84600A5
:10540000B8F80000ADF84000089800880138ADF801
:10541000440020A9FBF759FCDDF828E0DDE90B107A
:10542000884212DB0698ADF84250ADF84600B8F855
:105430000400ADF84400089880880130ADF84000C1
:1054400020A9FBF742FCDDF828E0BDF87800BDF8A4
:105450007C100597ADF84000D4B332B209B2AB4628
:10546000013A8A42C8BF0A46ADF84420101A0130FA
:1054700004B2012C75DB0D984FF000087045D8BFC1
:105480004FF0010840F3FF800F98484540F3FB8040
:10549000DDE9032100209142A8BF012040EA080075
:1054A00001285ED1069820AE05B2BDF97E00854286
:1054B00057DA239801352146FBF7EDFABDF9401084
:1054C00023982AB2234609F09BF8FBF7C3FAECE7CE
:1054D0000898ADF84410B8F902100DF18009B0F940
:1054E0000200081A02998842B8BF084604B2002692
:1054F000A64271DAB8F80600801B07B2B8F80200BD
:10550000304405B2BDF97A00854203DABDF97E0068
:10551000874224DC2398594611F08BFDBDF94010D9
:1055200023982A465B4609F06BF88DF89000BDF988
:105530007A00854207DB50464946ADF84650ADF843
:1055400042500AF0D0FBBDF97E00874207DC50468E
:105550004946ADF84670ADF842700AF0C4FB01361A
:10556000C6E70799BDF97820BDF87C0009B2ADF80F
:10557000440001319142B8BF1146ADF84010401AC5
:10558000013004B2012C27DBDDE90B104FF00008DD
:105590008842A8BF4FF0010880F290800F984845DC
:1055A00040F38C80DDE9032100209142A8BF012057
:1055B00040EA080001280FD1069820AD06B2BDF9D7
:1055C0007E00864208DA23980136FBF794F9FBF750
:1055D00077FEFBF74CFAF2E712A809F035F80598C8
:1055E00009F016FE099C18A809F02EF820B209F05F
:1055F0000FFE239811F0ACFB27B0BDE8F08F20A977
:105600000E980D961E460AF06EFB33460D9EB8F8B6
:105610000600F9883A460131ADF866001746ADF844
:105620006210D94508DB20A90E98D1469A460AF0A7
:105630005AFBF8885346CA46ADF86600B8F8000031
:10564000ADF8600038880138ADF864003846A542EE
:10565000C8BF40469E424088ADF8620003DC20A9E6
:105660000E980AF040FBB8F80400ADF86400B88862
:105670000130ADF860000F988245BDDB20A90E987F
:105680000AF031FBB8E7BDF97A700FFA8BF520AE5E
:10569000AF42BFF6FDAE23982146ADF84670ADF897
:1056A000427011F0C6FCBDF9401023983AB223466F
:1056B00008F0A6FFFBF7CEF90137E9E7BDF97A60FC
:1056C0000FFA8BF720ADBE42BFF66CAF2398FBF705
:1056D00012F9FBF7F5FDFBF7CAF90136F3E72DE9FF
:1056E000F04790B007464FF6FF70824246D07C6A82
:1056F00091468846B4F820A09A4504D0608C238453
:1057000040F00400608420464FF4802114F044FCF3
:10571000054620464FF4802114F077FC06462D897B
:10572000384601F0BDFF796AC08A8A8A098BADF8D4
:1057300038206FF00102ADF83C10A9196D4696FBB8
:10574000F2F201FB09221044ADF83A000844013896
:10575000ADF83E00284609F081FD20464FF4802137
:105760002A4614F087FE0EAA4046294609F062FD3B
:10577000608CA4F820A020F00400608410B0BDE884
:10578000F0872DE9F0438DB007464FF6FF70824257
:105790005AD07D6A16468846B5F82090994504D0BF
:1057A000688C2B8440F00400688405AC204608F027
:1057B00067FD28464FF48021224614F0BDFD28469F
:1057C0004FF4802114F021FCADF82600384601F09A
:1057D00067FFC8B3A98A074605986FF00102ADF8C4
:1057E0000C10298B0089ADF81010BDF92610084463
:1057F00091FBF2F1FA8A114400FB06110844ADF85E
:105800000E10D8F808100138ADF8120001AE03AA46
:105810003046FBF7A7FE88B1D8F808403846C8F8EC
:10582000086010F08FFC0346002007F1140200907E
:1058300005A9404608F0BAFAC8F80840688CA5F8EF
:10584000209020F0040068840DB0BDE8F0830000D3
:105850002DE9F04F95B0DFF8B8530746286807F0F8
:1058600045FF06463868846BE16A09B120468847DF
:10587000306850B1706840B1306930B12868006854
:10588000816A0029F8D08847F6E70120306128684E
:10589000D0F80080D8F80C108A69D20702D0896944
:1058A000890701D4002100E0012171610996716925
:1058B0003B68CDE90617596951B1196911F0300FEC
:1058C00001D0490718D4D4E900211846FEF75FFD3E
:1058D000099B186868B1596859B1079A1268127C17
:1058E000D20701D0069A22B19A68824218BF0146B7
:1058F000996015B0BDE8F08FD8F81010D4E900A475
:105900008A0701D54A07E3D4C1F30111012918BF61
:10591000032929D10B9407F0E9FE0B9B83461888D5
:1059200099885E880A1A0596013214B24FF4A05283
:10593000B2FBF4F5DA88921B013212B295420C9256
:10594000A8BF1546D8F810200A9502F03002102A98
:1059500027D1B8F80210C0430844C4F10101D8802F
:1059600008440491588021E00229B1D12088A188FF
:10597000E288081A61880130511A4FF0FF32013174
:1059800011FB00200021884240F229813AF81020C2
:105990003AF811302AF810302AF811200138013174
:1059A000F1E75880C4F10100D9800490059AA4F170
:1059B000010902210026CDE90EB8CDF8489009EB87
:1059C00002000390601C90FBF1F0149094FBF1F046
:1059D00000B21090D043029080B20190002011904C
:1059E0000C9A30B2904280F2F380012103463004D9
:1059F000CBF81010D51A0D930A99A942B8BF0D46DD
:105A0000002853D1A24251DBD8F81000002100F049
:105A10003003109881427CDA01FB04F0A446002593
:105A20001390A9EB010014FB00FE0FFA80FB0C465B
:105A300014982EB2B04234DD1398A9EB0507302B31
:105A4000304413D11CFB07413AF8108062463AF803
:105A500011902AF810900EFA87F0DDF848903AF885
:105A600010702AF8117016FB0CB112E016FB0CB185
:105A70003AF810801A4663463AF8116013462AF83D
:105A800010600EFA87F03AF810602AF811601CFBDB
:105A900007413AF8116001352AF810602AF81180A0
:105AA000C6E7DDE90EB8611C6446B2E711980896B6
:105AB00018B94FF4205011F0F9F81190D8F81000EF
:105AC00029B214FB05FE574601FB09F900F0300C22
:105AD0000846BCF1300F18BF404213954200002524
